:020000040000FA
:10000000803102288731D52F8E31042680318F31FF
:10001000642780318E310C2680318F31202780314A
:100020008F314227803108004001E7006308E90072
:100030006208E8004101A001A10132286830E50012
:100040006508CE006408E6006608CF0067088631C0
:100050005326803140014E084101A00740014F085E
:100060004101A13D40016808840069088500120033
:10007000031D3B283C281E28410121084001E300C4
:10008000410120084001E2000800313437342C34AB
:1000900030342A34363441342434473450345434E0
:1000A000583454342C34303431342C3430343134EA
:1000B0002C34303432342C3441344E3454345334B0
:1000C000543441345434553453343D344F34503423
:1000D00045344E342A3432344234313437342C34BB
:1000E00030342A3436344134243447345034523492
:1000F0004D3443342C3431343734323431343134A8
:1001000038342E343034383431342C3456342C34A2
:100110002C342C342C342C3430342E3430343034D1
:100120002C343134373432342E344001AD004101A7
:10013000261C9B289C28A82840012608FA0000308D
:10014000FB002D08FD007D08FC008F318F278031DA
:100150004001A81BAC28AD28B2282808AC0027080D
:10016000AB00B428AB01AC01A901AA01C82820301A
:10017000F2000030F30040012D08FD007D08F4007E
:100180008F31BA27803101304001A9070030AA3DE4
:100190002A08803AFD002C08803A7D02031DD228EF
:1001A0002B082902031CD528D628B7284101261878
:1001B000DA28DB28E72840012608FA000030FB0097
:1001C0002D08FD007D08FC008F318F278031400114
:1001D00026088E317526803140012B087007A60055
:1001E0002C08713DA70008004001A700410122082A
:1001F0002304031DFC28FD28052923084001A6002F
:10020000410122084001A5000E292208FF3E4001BD
:10021000A500FF304101233D4001A6004101261CFD
:100220001229132922297A084001A000A1012008DF
:10023000F2002108F3002708A2002208F4008F3101
:10024000BA2780314001A61B2629272928292A29D7
:10025000A501A601A301A4013E292030F20000302F
:10026000F30040012708A0002008F4008F31BA27CE
:10027000803101304001A3070030A43D2408803ABA
:10028000A0002608803A2002031D482925082302E1
:10029000031C4B294C292D2941012618502951298D
:1002A00060297A084001A000A1012008F20021087D
:1002B000F3002708A2002208F4008F31BA2780310A
:1002C00040012308013EFA000030243DFB000800F5
:1002D0004001A701A801A001A10172290130F60780
:1002E0000030F73DA601A60A76088400770885004D
:1002F0001200203A03197D297E299329760884006B
:10030000770885000008F73EF800FF30031800303A
:10031000F90000307902053003197802031C912995
:1003200092299329A6012608F800F9017808A2006D
:100330007908A30022082304031D9F29A0296E2900
:10034000AA290130A0000030A1000130F6070030DA
:10035000F73DDE2976088400770885000008F8005C
:10036000F9017908003A0319B629DE2978082B3AF1
:100370000319A529063A0319A129DE297608840064
:10038000770885000008F8002808F1002708F00029
:100390000A30F2000030F3008E31C126813171083D
:1003A000FA0078087002F900031CFA037908303E5D
:1003B0004001A70000307A3DA800A52976088400F6
:1003C000770885000008D03EF800FF3003180030A1
:1003D000F900003079020A3003197802031CF12970
:1003E000F3290130F4290030FA00FB017A08A40057
:1003F0007B08A50024082504031DFF29002ABE2927
:1004000020082104031D052A062A122A2709F800BC
:100410002809F900F80A0319F90A7808F60079089A
:10042000F700162A2808F7002708F6000800803190
:100430000420823120308600023087002030840082
:100440000130850050304101CE0016001A00CE0B5D
:10045000252A20308E31E0268231E53086000030BA
:100460008700D23084000030850006304101CE0084
:1004700016001A00CE0B382A4301C401C501CF2A49
:100480004408D23E8600870101084101CE00CF0119
:100490004E08F0004F08F10020308E318E26823158
:1004A0004101D0005008D80058088600013087006C
:1004B000010803195C2A5D2A972A00304001EA00EE
:1004C0009030EB0041015808860001308700010898
:1004D000CE00CF014E084001EC0041014F08400121
:1004E000ED008E3130268231203041015802CE009D
:1004F000CF01CE1BCF034E08FF3ED000FF304F3D53
:10050000D10043013F0841015106031D8B2A4301DD
:100510003E084101500603198E2A8F2A902ADE2AAE
:10052000203058024301BE00BF01BE1BBF03410182
:10053000580803199C2A9D2AA52A203058024301F5
:10054000C200C301C21BC303AA2AFF304301C20079
:10055000FF30C30017304001EA009030EB00430148
:100560004408D23E8600870101084101CE00CF0138
:100570004E084001EC0041014F084001ED004301ED
:1005800043084001EF00430142084001EE008E3174
:100590003026823101304301C4070030C53DD230DE
:1005A0008E3175268231710843014502031DDA2A16
:1005B00070084402031CDD2ADE2A402A8E312026E0
:1005C00082314101CE00CF014E084301C0004101FC
:1005D0004F084301C1004108F1004008F000B43069
:1005E0004101CE004E08F2008E3145268231DE2ACE
:1005F00080310228F2012830860000308700473F12
:10060000F000F01F042B052B262B4001A809A90997
:10061000AA09AB09AC09AD09AE09AF09A80A031DC7
:10062000242BA90A031D242BAA0A031D242BAB0A81
:10063000031D242BAC0A031D242BAD0A031D242B00
:10064000AE0A031D242BAF0AF201F20A2030860005
:1006500000308700473FF000F01F2F2B302B4F2B2F
:100660004001A009A109A209A309A409A509A60995
:10067000A709A00A031D4F2BA10A031D4F2BA20A95
:10068000031D4F2BA30A031D4F2BA40A031D4F2B41
:10069000A50A031D4F2BA60A031D4F2BA70A4001D5
:1006A000200821042204230424042504260427040A
:1006B00003195B2B5C2BAF2BF101F10A6B2BA035DF
:1006C000A10DA20DA30DA40DA50DA60DA70D013022
:1006D000F0007008F107A71F6E2B6F2B5F2B270808
:1006E0002F02031D8D2B26082E02031D8D2B25089E
:1006F0002D02031D8D2B24082C02031D8D2B230896
:100700002B02031D8D2B22082A02031D8D2B21088D
:100710002902031D8D2B20082802031C902B912BEE
:10072000A12B2008A8022108A93B2208AA3B2308E4
:10073000AB3B2408AC3B2508AD3B2608AE3B270865
:10074000AF3BA736A60CA50CA40CA30CA20CA10CC5
:10075000A00C0130F102031DAE2BAF2B6F2B7208E2
:100760000319B32BB42BD22BA809A909AA09AB09E9
:10077000AC09AD09AE09AF09A80A031DD22BA90A1D
:10078000031DD22BAA0A031DD22BAB0A031DD22BA9
:10079000AC0A031DD22BAD0A031DD22BAE0A031DDA
:1007A000D22BAF0A40012808A0002908A1002A087E
:1007B000A2002B08A3002C08A4002D08A5002E08D9
:1007C000A6002F08A7000800F201203086000030A4
:1007D0008700473FF000F01FEE2BEF2B102C40015D
:1007E000A009A109A209A309A409A509A609A709A5
:1007F000A00A031D0E2CA10A031D0E2CA20A031D24
:100800000E2CA30A031D0E2CA40A031D0E2CA50AF0
:10081000031D0E2CA60A031D0E2CA70AF201F20AD4
:100820002830860000308700473FF000F01F192C69
:100830001A2C3D2C4001A809A909AA09AB09AC0949
:10084000AD09AE09AF09A80A031D392CA90A031D79
:10085000392CAA0A031D392CAB0A031D392CAC0A0A
:10086000031D392CAD0A031D392CAE0A031D392C8A
:10087000AF0A0130F0007008F206733086000030D5
:1008800087000830F00000301E00F00B442C4001BF
:100890002008210422042304240425042604270418
:1008A0000319532C542CB02CF101F10A632CA03500
:1008B000A10DA20DA30DA40DA50DA60DA70D013030
:1008C000F0007008F107A71F662C672C572CF33532
:1008D000F40DF50DF60DF70DF80DF90DFA0D2708CD
:1008E0002F02031D8D2C26082E02031D8D2C25089A
:1008F0002D02031D8D2C24082C02031D8D2C230892
:100900002B02031D8D2C22082A02031D8D2C210889
:100910002902031D8D2C20082802031C902C912CE9
:10092000A22C2008A8022108A93B2208AA3B2308E0
:10093000AB3B2408AC3B2508AD3B2608AE3B270863
:10094000AF3B7314A736A60CA50CA40CA30CA20CE9
:10095000A10CA00C0130F102031DAF2CB02C672CB0
:1009600072080319B42CB52CD32CF309F409F5093A
:10097000F609F709F809F909FA09F30A031DD32C56
:10098000F40A031DD32CF50A031DD32CF60A031D0C
:10099000D32CF70A031DD32CF80A031DD32CF90A14
:1009A000031DD32CFA0A73084001A0007408A100AB
:1009B0007508A2007608A3007708A4007808A500AF
:1009C0007908A6007A08A70008004001BD00300899
:1009D000C4003108C5003208C6003308C700340817
:1009E000C8003508C9003608CA003708CB004430B3
:1009F000860000308700473FB800B81B002D022D4D
:100A00000130032D00304001B900BA013908C2009D
:100A10003A08C3004208430403190F2D102D2E2D50
:100A2000C409C509C609C709C809C909CA09CB0942
:100A3000C40A031D2E2DC50A031D2E2DC60A031D33
:100A40002E2DC70A031D2E2DC80A031D2E2DC90ADF
:100A5000031D2E2DCA0A031D2E2DCB0A4101A51BF5
:100A6000322D332D372DFD30A605FF30A705250883
:100A7000803A4001B80080303802031D422D013019
:100A8000410124020318452D462D4C2D0130400113
:100A9000BE000030BF00542D410125084001BF00B9
:100AA000410124084001BE00410123084001C1006A
:100AB000410122084001C00042084304031D612D8A
:100AC000622D672D4101261D662D672D6C2DFF308F
:100AD0004001C007FF30C13D1F304001CC00003055
:100AE000CD004101C901DC2DFF304001CC07FF30B2
:100AF000CD3D0A30A000A101A201A301A401A501DE
:100B0000A601A7014408A8004508A9004608AA00B4
:100B10004708AB004808AC004908AD004A08AE00E1
:100B20004B08AF008231FA22843140012108F400E1
:100B30002008F3008E31A72684317308303E40012F
:100B4000B8004C08AA3E8600870138088100FF30B3
:100B5000BE07FF30BF3DFF30C007FF30C13D0A3048
:100B6000A000A101A201A301A401A501A601A70162
:100B70004408A8004508A9004608AA004708AB0099
:100B80004808AC004908AD004A08AE004B08AF0069
:100B90008331E423843140012008C4002108C500CA
:100BA0002208C6002308C7002408C8002508C90079
:100BB0002608CA002708CB0040014D08803AB8003B
:100BC00080303802031DE62D01304C02031CE92D54
:100BD000EA2D172E40014408450446044704480402
:100BE00049044A044B04031DF62DF72D742D3F08CC
:100BF000803AB80080303802031D002E01303E02DA
:100C00000318032E042E742D40014108803AB800C9
:100C100080303802031D0E2E01304002031C112EBD
:100C2000122E172E4101A618162E172E742D4001D4
:100C300042084304031D1D2E1E2E232E4101261D96
:100C4000222E232E3F2EFF304001CC07FF30CD3D1A
:100C500042084304031D2D2E2E2E332E2B30BB00B5
:100C60000030BC00372E2D30BB000030BC003B08EC
:100C7000B8004C08AA3E8600870138088100400170
:100C80004C08AA3EB8003808A6004108A800400851
:100C9000A7003D0880319520843140012708B1002C
:100CA0002608B00008004001E1004E0886008701D8
:100CB000403FD000413FD1005008840051088500DA
:100CC0001200253A031D652E662EB12F4E088600B0
:100CD00087010130810741310318810A4101A201D6
:100CE000A301A601A701FF30A400FF30A500400129
:100CF0004E0886008701403FD000413FD100500898
:100D000084005108850012002A3A031D882E892E7E
:100D1000A92E4E0886008701013081074131031852
:100D2000810A4F088600870101088400850102308E
:100D30008107003F4101A200013FA300A31FA12E94
:100D4000A22EEB2E2614A209A309A20A0319A30AB4
:100D5000EB2E4E0886008701403FF600413FF7002A
:100D600081316821863177084101A3007608A2000D
:100D7000C12E4E08860087010130810741310318DA
:100D8000810A40014E0886008701403FD000413F64
:100D9000D10050088400510885000008D03ED200E0
:100DA000FF3003180030D300003053020A3003191B
:100DB0005202031CDC2EDE2E0130DF2E0030D40068
:100DC000D5015408DF005508E0005F086004031DEA
:100DD000EA2EEB2EB92E40014E0886008701403FD7
:100DE000D000413FD1005008840051088500120016
:100DF000633A031DFC2EFD2E1F2F4E08860087012F
:100E00000130810741310318810A4F0886008701AC
:100E1000010884008501023081070008D0005008D5
:100E2000DE005E08D0005008FA0061088031F4202E
:100E300086317B084001CF007A08CE00D42F4E08BF
:100E400086008701403FD000413FD1005008840018
:100E5000510885001200643A03192F2F302F412FBB
:100E60004E0886008701403FD000413FD100500826
:100E70008400510885001200693A031D402F412F5C
:100E80007C2F4E088600870101308107413103180D
:100E9000810A4F088600870101088400850102301D
:100EA0008107003FD000013FD1005008D600510813
:100EB000D700890D893B8909D800D900DA00DB0009
:100EC000DC00DD005608B0005708B1005808B20039
:100ED0005908B3005A08B4005B08B5005C08B600B6
:100EE0005D08B70061088431E5248631400131088E
:100EF000CF003008CE00D42F4E0886008701403F37
:100F0000D000413FD10050088400510885001200F4
:100F1000253A031D8C2F8D2FA62F4E0886008701A2
:100F20000130810741310318810A2530F200003079
:100F3000F3006108D0005008F4008F31BA278631E1
:100F400001304001CE000030CF00D42F4E08860083
:100F500087010130810741310318810ACE01CF0199
:100F6000D42F4E0886008701403FD000413FD1007A
:100F700050088400510885000008D200D3015208AF
:100F8000F2005308F3006108D4005408F4008F31D4
:100F9000BA27863140014E0886008701013081075B
:100FA00041310318810AA02F0800FE3084008D30E3
:100FB0008500E53086000030870006308D31F82549
:100FC0008731453084008030850020308600023033
:100FD000870050308D31F8258731A03084000030F3
:100FE00085002A308D31F2258731A0308400013010
:100FF000850014308D31F225873140018231172A66
:101B900071084101E0007008DF0008007108410190
:101BA000E4007008E300080071084101E2007008D9
:101BB000E100080071084101DA007008D90008004E
:101BC00071084101DE007008DD0008007108410164
:101BD000DC007008DB000800F10071088E31162669
:101BE0008D310800640080010131890BF32D003430
:101BF000FE0012001E00FE0BF92D00342434473481
:101C0000503452344D3400344F01960197019801FD
:101C100099019A019B010800623051018D008F01EA
:101C2000910102309300900192010800F0004E01F2
:101C30000F1E1B2E1C2E172E700842019A00080042
:101C40004E018F1E242E252E202E4101A901420176
:101C50009D1C2B2E2C2E2E2E1D121D161908080031
:101C60006C304101CA004A08CD0040016B08E30016
:101C70006A08E200CD304101CA004A084001E40090
:101C80000030803114208E3108007008710403196F
:101C90004A2E4B2E572E7008F30072088600013032
:101CA0008700730881000130F3007308F20772089F
:101CB000860001308700810108007008D03EF200E4
:101CC000FF30713DF300003073020A3003197202D5
:101CD000031C6B2E6D2E01306E2E0030F400F501CA
:101CE0007408F0007508F1000800F4007408F200B0
:101CF0007208F3007F2E0130F2007208F4077408B6
:101D0000860087010108031D862E872E7B2E73080F
:101D10007402F000F101F01BF1030800F2007208F8
:101D200086000130870001087006031D982E992E49
:101D30009B2E7208A62E7208860001308700F20AD8
:101D40000108031DA42EA52E8F2E00300800740854
:101D5000803AF50080307502031DB02E0130730209
:101D60000318B32EB42EC02E7309F5007409F600C3
:101D7000F50A0319F60A7508F3007608F400C02E78
:101D80000800F401F501701CC62EC72ECB2E720878
:101D9000F4077308F53D0130F235F30D890BCC2EB5
:101DA0000130F136F00C890BD12E70087104031D3F
:101DB000DA2EDB2EC32E7508F1007408F00008003F
:101DC0004001A800A901A90A2808FA000130FB0077
:101DD000FC018F318F278E31FB1BEF2EF02EFE2E54
:101DE0000A30F2000030F300F4018F31BA278E314F
:101DF000F31BFB2EFC2EFE2E4001A9010800F4016E
:101E0000F40A2030700671040319072F082F182FC9
:101E10007008F73EF200FF30713DF30000307302AE
:101E2000053003197202031C162F172F182FF40107
:101E30007408F200F3017208F0007308F100080062
:101E4000083042019F0090309D0024309E001930E0
:101E50009B009C010030F0000030F1008D31CE2558
:101E60008F310030F0000030F1008D31D4258F31FA
:101E70000030F0000030F1008D31C8258F31410174
:101E8000A9010800083054019F0090309D002430C3
:101E90009E0019309B009C010030F0000030F100E2
:101EA0008D31E0258F310030F0000030F1008D31B0
:101EB000E6258F310030F0000030F1008D31DA2559
:101EC0008F314101A80108004001980199019A0150
:101ED0003730920070309300FE309400FD307E0168
:101EE000CE00D030C3003730B800C401B901CF01F3
:101EF000BA01C501D0011F30BB00C6013F30D1007F
:101F00003F30BC00C7013F30D2001130A0000F307D
:101F10009F0011307D01CD000D30CB000800400145
:101F2000A401A501A62F2308A000A1012008F2000A
:101F30002108F3007C08A2002208F4008F31BA27A0
:101F40008F3101304001A4070030A53D24087A07F5
:101F5000860025087B3D87000108A0002008A3001B
:101F60002308031DB42FB52F932F2508FB00240849
:101F7000FA00080074080319BE2FBF2FC42F74087D
:101F8000031DC32FC42FC92F72088D31EC258F314B
:101F9000F82F7408033E8600870116000104031918
:101FA000D22FD32FF02F7408033E86008701403FC5
:101FB000F500413FF600740A86008701403FF700B4
:101FC000413FF8007808803AF9007608803A7902B3
:101FD000031DEC2F750877020318EF2FF02FF82F51
:101FE000740A860087010130810741310318810A94
:101FF0007208F500F6017508F2007608F300080093
:1020000050346F3473346934743469346F346E34DB
:10201000203450346F3469346E347434653472341F
:102020003A342034253463340D340A3400342534F2
:10203000343463343A3420342534343464340D3445
:042040000A3400342A
:020000040001F9
:0A000E00EC3FFF3F9F3FFF3FFF3F25
:00000001FF
