:020000040000FA
:0400000080312B28F8
:100008007E1480310B1F09280A2829284E01191E41
:100018000E280F281A280F1E122813281A28400104
:100028005E088A005D080A0080312928991E1D286B
:100038001E2829288F1E21282228292840015C08EB
:100048008A005B080A00803129287E100900803167
:100058002D28FC014530840000308500163084319D
:100068000D248031A0308400003085004430843174
:100078000D2480317E10400181315B294001B2009E
:100088002A0886008701403FAC00413FAD002C089C
:1000980084002D0885001200253A031D5428552890
:1000A800CD282A08860087010130810741310318CD
:1000B800810ACF01D001D301D401FF30D100FF3034
:1000C800D2002A0886008701403FAC00413FAD00BE
:1000D8002C0884002D0885001200633A031D75283A
:1000E800762898282A08860087010130810741313F
:1000F8000318810A2B0886008701010884008501FE
:10010800023081070008AC002C08B1003108AC00AF
:100118002C08A00032088031F120803140012108EC
:10012800AB002008AA00F0282A0886008701403F73
:10013800AC00413FAD002C0884002D08850012005A
:10014800253A031DA828A928C2282A08860087015D
:100158000130810741310318810A2530F40000304D
:10016800F5003208AC002C08F6008131AE21803150
:1001780001304001AA000030AB00F0282A088600B0
:1001880087010130810741310318810AAA01AB01B7
:10019800F0282A0886008701403FAC00413FAD00A7
:1001A8002C0884002D0885000008AE00AF012E0839
:1001B800F4002F08F5003208B0003008F60081314D
:1001C800AE21803140012A0886008701013081076D
:1001D80041310318810ABC2808004001A9004F08D2
:1001E8005004031DF828F928FE285008A8004F08D5
:1001F800A70004294F08FF3EA700FF30503DA80084
:10020800531C0729082916292008A200A30122083F
:10021800F4002308F5002908A4002408F600813119
:10022800AE2180314001A81B1A291B291C291E292F
:10023800A701A801A501A60132292030F400003049
:10024800F50040012908A2002208F6008131AE21FC
:10025800803101304001A5070030A63D2608803ACC
:10026800A2002808803A2202031D3C2927082502FB
:10027800031C3F29402921294001531844294529B5
:1002880053292008A200A3012208F4002308F5003E
:100298002908A4002408F6008131AE2180314001EC
:1002A8002508013EA0000030263DA100080083314A
:1002B800EB2381314201AD01AE018231EB22813164
:1002C8004001C300C40143084201AF004001440893
:1002D8004201B0003008F2002F08F100223040013E
:1002E800C3004308F30042012E08F5002D08F4006E
:1002F80083313D2381312430F1000030F200223077
:100308008331C02381318600013087002430010603
:10031800031D8F299029612965304001BB00823077
:10032800BC002430F1000030F20022308331C023B9
:10033800813186000130870001084001C300C401F3
:100348004308BD004408BE008331D92381316129A7
:1003580080312B2876080319B229B329B8297608E1
:10036800031DB729B829BD297408843113248131A4
:10037800EC297608033E860087011600010403195C
:10038800C629C729E4297608033E86008701403F2D
:10039800F700413FF800760A86008701403FF900E0
:1003A800413FFA007A08803AFB007808803A7B02DD
:1003B800031DE029770879020318E329E429EC29C9
:1003C800760A860087010130810741310318810AC6
:1003D80008004E0199122C30F1000230F2008431ED
:1003E800312481314E0119128430F1000330F200BA
:1003F80084312B248131083042019F0090309D00C8
:1004080024309E0019309B009C015130F1000430CB
:10041800F20084313D2481314930F1000430F2008A
:100428008431372481314D30F1000430F2008431B9
:10043800432481314001D601DA01D9010830F300A3
:100448007308DF00FC01D801D7014E019916080096
:100458007C08453E86008701810142011D1D352A21
:10046800362A412A7C08453E8600870181144101CD
:100478006F088A006E080A00823142019D1C452AD5
:10048800462A512A7C08453E86008701011541010C
:100498006D088A006C080A0082317C08453E860097
:1004A800870101080319592A5A2A612A41016B0850
:1004B8008A006A080A008231642A8331A6238231BD
:1004C800080054346834693473342034693473341C
:1004D800203461342034763461346C3469346434C3
:1004E8002034733465346E34743465346E34633454
:1004F800653420347434683461347434203473348B
:100508007434613472347434733420347734693415
:10051800743468343A3420342534633421340D3447
:100528000A3400344001980199019A013730920049
:1005380070309300FE309400FD307E01CE00D03044
:10054800C3003730B800C401B901CF01BA01C501F1
:10055800D0011F30BB00C6013F30D1003F30BC0086
:10056800C7013F30D2001130A0000F309F0011307A
:100578007D01CD000D30CB000800F20040015F087E
:100588000319C72AC82AC22A4E01191ACC2ACD2A09
:10059800D12A720842019A00E82A19127208F10059
:1005A80040015A08DC3E860087017108810001304D
:1005B800F1007108DA0708305A02031CE42AE52A18
:1005C800E62ADA010130DF024E011916080040015F
:1005D80057080319F02AF12AEB2A5808453E8600E5
:1005E80087010108F1007108D6005808D43E86003A
:1005F80087010108F1007108F2000130F10071086B
:10060800D80708305802031C0A2B0B2B0C2BD801D7
:100618004E01991201304001D7024E019916720815
:1006280008004001B8003408BA003308B900CD0109
:10063800CE012F2B3930B6003608AA003508B7008E
:100648003708AB00380880314220833140012A083E
:10065800CD072B08CE3D390884003A0885001200E2
:10066800031D372B382B1E2B4E08B4004D08B30042
:100678000800710872040319422B432B502B710890
:10068800F600730886000130870076088100013083
:10069800F6007608F3075C2B3030F6007308860006
:1006A80001308700760881000130F6007608F307EC
:1006B8007308860001308700810108000830540162
:1006C8009F0090309D0024309E0019309B009C01B3
:1006D8000030F1000030F20084311F2483310030F3
:1006E800F1000030F2008431192483310030F10028
:1006F8000030F2008431252483314001D5010800FF
:10070800083040015F0203188A2B8B2BA32B590852
:10071800DC3E86008701010842019A000130F000A2
:1007280070084001D90708305902031C9C2B9D2BE7
:100738009E2BD9010130F0007008DF07A52B4E0170
:100748001912080042011908F0007C08D43E8600FE
:100758008701700881000130F0007008FC0708303C
:100768007C02031CB82BB92BBA2BFC010130F0001A
:1007780070084001D7070800F300730886000130AD
:10078800870001087106031DCA2BCB2BCD2B7308DC
:10079800D82B7308860001308700F30A0108031D6F
:1007A800D62BD72BC12B003008003D304001BF00AD
:1007B8003F08C2003C08B4003B08B3004230BF0009
:1007C8003F08B50000308331152383310800843198
:1007D800052483318231962283318331FB2383318F
:1007E8008131ED2183318331622383310800623006
:1007F80051018D008F019101023093009001920107
:1008080008004F0196019701980199019A019B01EF
:100818000800640080010131890B0E2C0034F300BC
:1008280073088231C1228431080072084101E7004F
:100838007108E600080072084101E9007108E80043
:10084800080072084101E5007108E4000800720818
:100858004001DE007108DD00080072084001DC007C
:100868007108DB00080072084101ED007108EC0016
:10087800080072084101EF007108EE0008007208D4
:100888004101EB007108EA00080042011D121D1623
:0C08980008008331A6238431080008000A
:020000040001F9
:0A000E00EC3FFF3F9F3FFF3FFF3F25
:00000001FF
