:020000040000FA
:08000000803102288731ED2F49
:1009B00071084101C7007008C600080071084101B4
:1009C000CB007008CA00080071084101C900700816
:1009D000C800080071084101C1007008C00008008B
:1009E00071084101C5007008C40008007108410188
:1009F000C3007008C2000800F100710885311A2593
:100A000084310800640080010131890B032D00341A
:100A10004F0196019701980199019A019B010800E5
:100A2000623051018D008F019101023093009001DD
:100A300092010800F0004E010F1E1F2D202D1B2DCE
:100A4000700842019A0008004E018F1E282D292DA2
:100A5000242D4001EF0142019D1C2F2D302D322D00
:100A60001D121D16190808008531082585318531AC
:100A7000FB25853185311025853185316D25853101
:100A800085318F258531080039304001BB003B0896
:100A9000BE003808B0003708AF003E30BB003B084E
:100AA000B10000308531D32585310800F20072088D
:100AB0008600870101087006031D5F2D602D622DE1
:100AC00072086C2D720886008701F20A0108031D66
:100AD0006A2D6B2D572D00300800083042019F0011
:100AE00090309D0024309E0019309B009C01003006
:100AF000F0000030F1008431DE2485310030F00058
:100B00000030F1008431E42485310030F000003001
:100B1000F1008431D82485314001EF01080008300C
:100B200054019F0090309D0024309E0019309B009E
:100B30009C010030F0000030F1008431F024853158
:100B40000030F0000030F1008431F62485310030AF
:100B5000F0000030F1008431EA2485314001EE01DB
:100B60000800700871040319B62DB72DC32D700845
:100B7000F500720886008701750881000130F500D4
:100B80007508F207CE2D3030F50072088600870117
:100B9000750881000130F5007508F20772088600BB
:100BA0008701810108004001B4003008B6002F0819
:100BB000B500E601E701ED2D3530B2003208A8009E
:100BC0003108B3003308A900340887313E27853146
:100BD00040012808E6072908E73D35088400360863
:100BE00085001200031DF52DF62DDC2D6708B000E1
:100BF0006608AF0008004001980199019A0137305A
:100C0000920070309300FE309400FD307E01CE00E3
:100C1000D030C3003730B800C401B901CF01BA01E8
:100C2000C501D0011F30BB00C6013F30D1003F30AD
:100C3000BC00C7013F30D2001130A0000F309F0030
:100C400011307D01CD000D30CB0008007408031970
:100C50002A2E2B2E302E7408031D2F2E302E352ECB
:100C600072088431FC248631642E7408033E8600A9
:100C700087011600010403193E2E3F2E5C2E7408D6
:100C8000033E86008701403FF500413FF600740AAD
:100C900086008701403FF700413FF8007808803A1E
:100CA000F9007608803A7902031D582E75087702FC
:100CB00003185B2E5C2E642E740A860087010130B7
:100CC000810741310318810A08004001A700680824
:100CD0006904031D6C2E6D2E722E6908A60068082B
:100CE000A500782E6808FF3EA500FF30693DA600EC
:100CF0006C1C7B2E7C2E8A2E7A08A000A101200875
:100D0000F2002108F3002708A2002208F40086312F
:100D1000262686314001A61B8E2E8F2E902E922ED7
:100D2000A501A601A301A401A62E2030F2000030E7
:100D3000F30040012708A0002008F4008631262691
:100D4000863101304001A3070030A43D2408803AD9
:100D5000A0002608803A2002031DB02E2508230299
:100D6000031CB32EB42E952E40016C18B82EB92E4C
:100D7000C72E7A08A000A1012008F2002108F30084
:100D80002708A2002208F400863126268631400179
:100D90002308013EFA000030243DFB0008008531A5
:100DA000342586314001CD01CE01D10140015108E9
:100DB0000319DB2EDC2EDD2EF92E8531242586311C
:100DC0004001BF00C0013F08CF004008D0005008DC
:100DD000F1004F08F0004330BF003F08F2004E081A
:100DE000F4004D08F3008531B12586314001D10171
:100DF000D10A0A30F0000030F10043308531562529
:100E00008631860087010A300106031D082F092F4D
:100E1000112F31304001B7008830B80085314425AA
:100E200086312430F0000030F10043308531562502
:100E300086318600870124300106031D202F212FD3
:100E4000D62E00304001B7008830B8002430F000C2
:100E50000030F10043308531562586318600870108
:100E600001084001BF00C0013F08B9004008BA00B6
:100E7000853144258631D62E80310228FD0040017F
:100E8000280886008701403FAA00413FAB002A089E
:100E900084002B0885001200253A031D502F512F86
:100EA000C92F2808860087010130810741310318C6
:100EB000810AE801E901EC01ED01FF30EA00FF30B1
:100EC000EB00280886008701403FAA00413FAB00A5
:100ED0002A0884002B0885001200633A031D712F35
:100EE000722F942F28088600870101308107413135
:100EF0000318810A290886008701010884008501FA
:100F0000023081070008AA002A08FC007C08AA0019
:100F10002A08FA007D088631652687317B08400162
:100F2000A9007A08A800EC2F280886008701403F16
:100F3000AA00413FAB002A0884002B08850012005C
:100F4000253A031DA42FA52FBE2F28088600870150
:100F50000130810741310318810A2530F200003049
:100F6000F3007D08AA002A08F4008631262687317E
:100F700001304001A8000030A900EC2F28088600AD
:100F800087010130810741310318810AA801A901B5
:100F9000EC2F280886008701403FAA00413FAB00A4
:100FA0002A0884002B0885000008AC00AD012C083D
:100FB000F2002D08F3007D08AE002E08F400863103
:100FC00026268731400128088600870101308107E5
:100FD00041310318810AB82F0800523084000030D4
:100FE00085001E30853102258731A0308400003015
:100FF0008500203085310225873140018631CF2E92
:10100000543468346934733420346934733420348C
:1010100061342034763461346C346934643420347F
:10102000733465346E34743465346E3463346534CB
:101030002034743468346134743420347334743438
:1010400061347234743473342034773469347434D2
:1010500068343A3420342534633421340D340A346E
:101060000034543468346534203465346E34643468
:081070002E340D340A34003463
:020000040001F9
:0A000E00EC3FFF3F9F3FFF3FFF3F25
:00000001FF
