:020000040000FA
:08000000803102288731ED2F49
:100B740071084001E4007008E300080071084001B6
:100B8400E8007008E700080071084001E6007008FA
:100B9400E500080071084001DE007008DD0008006F
:100BA40071084001E2007008E1000800710840018A
:100BB400E0007008DF000800F100710886310626A5
:100BC40085310800640080010131890BE52D003472
:100BD4004F0196019701980199019A019B01080020
:100BE400F0004E010F1FF72DF82DF32D700854015E
:100BF4009A000800623051018D008F01910102308A
:100C04009300900192010800F0004E010F1E0B2E7C
:100C14000C2E072E700842019A0008004E018F1E08
:100C2400142E152E102E4001DC0142019D1C1B2E9A
:100C34001C2E1E2E1D121D16190808008531EA25CA
:100C440086318631F42686318531FC25863186311C
:100C54004326863186316526863108004001AD0081
:100C64007030A9002908AE002D08A9002908A300A6
:100C74002E30AA002A08A40000308631CD26863101
:100C84000800083042019F0090309D0024309E00EF
:100C940019309B009C010030F0000030F1008531D8
:100CA400C02586310030F0000030F1008531C625C2
:100CB40086310030F0000030F1008531BA258631EC
:100CC4004001DC010800083054019F0090309D0071
:100CD40024309E0019309B009C010030F00000304D
:100CE400F1008531D22586310030F0000030F1006A
:100CF4008531D82586310030F0000030F10085318F
:100D0400CC2586314001DB01080070087104031909
:100D14008C2E8D2E992E7008F300720886008701A0
:100D2400730881000130F3007308F207A42E3030F9
:100D3400F300720886008701730881000130F30014
:100D44007308F20772088600870181010800863162
:100D5400202686318631102686314001AF00B0014D
:100D64002F08BD003008BE003E08F1003D08F00029
:100D74003130AF002F08F2008631872686313130BA
:100D840086313026863140013D088531F225863191
:100D9400AC2E803102284001A7002308A5002508B5
:100DA400A800D301D401E72E2830A5002508FA00B5
:100DB4002408A6002608FB00270887315E27863111
:100DC4007A084001D3077B08D43D280886008701B0
:100DD4000108031DEE2EEF2ED62E5408A40053084E
:100DE400A30008004001980199019A01373092004C
:100DF40070309300FE309400FD307E01CE00D03080
:100E0400C3003730B800C401B901CF01BA01C5012C
:100E1400D0011F30BB00C6013F30D1003F30BC00C1
:100E2400C7013F30D2001130A0000F309F001130B5
:100E34007D01CD000D30CB00080074080319232F69
:100E4400242F292F7408031D282F292F2E2F7208D1
:100E54008531DE2587315D2F7408033E86008701C6
:100E6400160001040319372F382F552F7408033E39
:100E740086008701403FF500413FF600740A860072
:100E84008701403FF700413FF8007808803AF900B5
:100E94007608803A7902031D512F750877020318EA
:100EA400542F552F5D2F740A860087010130810766
:100EB40041310318810A0800FD007A088600870181
:100EC40001088600870125300106031D6A2F6B2F58
:100ED400CE2F01304001A0007A0886008701200847
:100EE4008107D501D601D901DA01FF30D700FF30DF
:100EF400D8007A08860087010108860087016E30D1
:100F04000106031D862F872FA32F0130A0007A0826
:100F140086008701200881077B0886008701403FFF
:100F240084008501810A0008A0002008FC007C08D8
:100F3400860087015308C03F5408C13FFA01FB01F2
:100F4400EC2F7A0886008701010886008701253086
:100F54000106031DAE2FAF2FC62F0130A0007A0863
:100F640086008701200881072530F2000030F30055
:100F74007D08A0002008F40087311F278731013045
:100F8400FA000030FB00EC2F0130A0007A08860044
:100F9400870120088107A02F7A08860087010108AD
:100FA4008600870101084001A000A1012008F20089
:100FB4002108F3007D08A2002208F40087311F27CE
:100FC400873101304001A0007A088600870120089B
:100FD4008107C12F08003F308400003085001E3097
:100FE4008531E4258731A03084000030850020302D
:0C0FF4008531E425873140018631A92EAB
:020000040001F9
:0A000E00EC3FFF3F9F3FFF3FFF3F25
:00000001FF
