:020000040000FA
:08000000803102288731ED2F49
:1009C40071084101C7007008C600080071084101A0
:1009D400CB007008CA00080071084101C900700802
:1009E400C800080071084101C1007008C000080077
:1009F40071084101C5007008C40008007108410174
:100A0400C3007008C2000800F10071088531242574
:100A140085310800640080010131890B0D2D0034FB
:100A24004F0196019701980199019A019B010800D1
:100A3400623051018D008F019101023093009001C9
:100A440092010800F0004E010F1E292D2A2D252D9C
:100A5400700842019A0008004E018F1E322D332D7A
:100A64002E2D4001EE0142019D1C392D3A2D3C2DC5
:100A74001D121D161908080085311225853186318D
:100A84000526853185311A258531853177258531CE
:100A9400853199258531080039304001BB003B0878
:100AA400BE003808B0003708AF003E30BB003B083A
:100AB400B10000308531DD2585310800F20072086F
:100AC4008600870101087006031D692D6A2D6C2DAF
:100AD4007208762D720886008701F20A0108031D48
:100AE400742D752D612D00300800083042019F00DF
:100AF40090309D0024309E0019309B009C010030F2
:100B0400F0000030F1008431E82485310030F00039
:100B14000030F1008431EE2485310030F0000030E3
:100B2400F1008431E22485314001EE0108000830EF
:100B340054019F0090309D0024309E0019309B008A
:100B44009C010030F0000030F1008431FA2485313A
:100B54000030F0000030F10085310025853100308F
:100B6400F0000030F1008431F42485314001ED01BE
:100B74000800700871040319C02DC12DCD2D700813
:100B8400F500720886008701750881000130F500C0
:100B94007508F207D82D3030F500720886008701F9
:100BA400750881000130F5007508F20772088600A7
:100BB4008701810108004001B4003008B6002F0805
:100BC400B500E501E601F72D3530B2003208A80082
:100BD4003108B3003308A900340887313E27853132
:100BE40040012808E5072908E63D35088400360851
:100BF40085001200031DFF2D002EE62D6608B000AF
:100C04006508AF0008004001980199019A01373046
:100C1400920070309300FE309400FD307E01CE00CF
:100C2400D030C3003730B800C401B901CF01BA01D4
:100C3400C501D0011F30BB00C6013F30D1003F3099
:100C4400BC00C7013F30D2001130A0000F309F001C
:100C540011307D01CD000D30CB000800740803195C
:100C6400342E352E3A2E7408031D392E3A2E3F2E7B
:100C740072088531062586316E2E7408033E86007F
:100C84008701160001040319482E492E662E7408A4
:100C9400033E86008701403FF500413FF600740A99
:100CA40086008701403FF700413FF8007808803A0A
:100CB400F9007608803A7902031D622E75087702DE
:100CC4000318652E662E6E2E740A86008701013085
:100CD400810741310318810A080085313E25863198
:100CE4004001CD01CE0185312E2586314001BF0062
:100CF400C0013F08CF004008D0005008F1004F0861
:100D0400F0004330BF003F08F2004E08F4004D08E5
:100D1400F3008531BB2586310A30F0000030F10044
:100D24004330853160258631860087010A3001060B
:100D3400031D9D2E9E2EA72E31304001B700883012
:100D4400B80085314E258631D22E2430F000003093
:100D5400F1004330853160258631860087012430D7
:100D64000106031DB62EB72E752E00304001B700C4
:100D74008830B8002430F0000030F1004330853171
:100D8400602586318600870101084001BF00C0014B
:100D94003F08B9004008BA0085314E258631752ECA
:100DA400803102284001A70067086804031DDB2E78
:100DB400DC2EE12E6808A6006708A500E72E670868
:100DC400FF3EA500FF30683DA6006B1CEA2EEB2E0B
:100DD400F92E7A08A000A1012008F2002108F300EE
:100DE4002708A2002208F40086313026863140010B
:100DF400A61BFD2EFE2EFF2E012FA501A601A30189
:100E0400A401152F2030F2000030F3004001270820
:100E1400A0002008F40086313026863101304001DC
:100E2400A3070030A43D2408803AA0002608803A95
:100E34002002031D1F2F25082302031C222F232F0A
:100E4400042F40016B18272F282F362F7A08A00073
:100E5400A1012008F2002108F3002708A2002208BB
:100E6400F40086313026863140012308013EFA0021
:100E74000030243DFB000800FD00400128088600E6
:100E84008701403FAA00413FAB002A0884002B0899
:100E940085001200253A031D502F512FC92F280811
:100EA400860087010130810741310318810AE70177
:100EB400E801EB01EC01FF30E900FF30EA0028080B
:100EC40086008701403FAA00413FAB002A08840006
:100ED4002B0885001200633A031D712F722F942F83
:100EE4002808860087010130810741310318810AEF
:100EF40029088600870101088400850102308107E2
:100F04000008AA002A08FC007C08AA002A08FA00A3
:100F14007D088631D42687317B084001A9007A08F0
:100F2400A800EC2F280886008701403FAA00413F13
:100F3400AB002A0884002B0885001200253A031D03
:100F4400A42FA52FBE2F2808860087010130810712
:100F540041310318810A2530F2000030F3007D0886
:100F6400AA002A08F4008631302687310130400176
:100F7400A8000030A900EC2F280886008701013062
:100F8400810741310318810AA801A901EC2F28081F
:100F940086008701403FAA00413FAB002A08840035
:100FA4002B0885000008AC00AD012C08F2002D08C8
:100FB400F3007D08AE002E08F40086313026873118
:100FC4004001280886008701013081074131031858
:100FD400810AB82F080051308400003085001E308B
:100FE40085310C258731A030840000308500203005
:100FF40085310C258731400186316F2E5434683495
:1010040069347334203469347334203461342034C3
:10101400763461346C346934643420347334653424
:101024006E34743465346E3463346534203474340B
:1010340068346134743420347334743461347234F5
:1010440074347334203477346934743468343A34FF
:1010540020342534633421340D340A3400345434B8
:1010640068346534203465346E3464342E3400348A
:020000040001F9
:0A000E00EC3FFF3F9F3FFF3FFF3F25
:00000001FF
