:020000040000FA
:08000000803102288731FC2F3A
:100E92007708F1007608F00008007708F500760878
:100EA200F40008007708F3007608F20008004F010A
:100EB20096019701980199019A019B0108006230FD
:100EC20051018D008F019101023093009001920136
:100ED2000800873158278731873198278731873132
:100EE2006027873187317727873108000830420130
:100EF2009F0090309D0024309E0019309B009C0181
:100F02000030F6000030F70087314E27873100307D
:100F1200F6000030F7008731532787310030F600A2
:100F22000030F700873149278731F9010800400175
:100F3200980199019A013730920070309300FF3086
:100F42009400FF307E01CE00D030C3003730B800AD
:100F5200C401B901CF01BA01C501D0011F30BB00E4
:100F6200C6013F30D1003F30BC00C7013F30D20044
:100F72000F309F000D307D01CB00080087316A27BA
:100F820087314001AA01AB0142019D1CC92FCA2F22
:100F9200E72F40012B08803AF80080307802031DC9
:100FA200D42F0A302A020318D72FD82FE72F420155
:100FB2001908F80040012A08203E860087017808B7
:100FC20081000130AA070030AB3DC52F42019D1CB4
:100FD200EB2FEC2FC52F40012B08803AF800803010
:100FE2007802031DF62F0B302A02031CF92FFA2F69
:0E0FF200C52F80310228F90140018731BF2F41
:020000040001F9
:0A000E00EC3FFF3F9F3FFF3FFF3F25
:00000001FF
